{
  "contracts/Lottery.sol": {
    "Lottery": {
      "abi": [
        {
          "inputs": [
            {
              "internalType": "address",
              "name": "vrfCoordinatorV2",
              "type": "address"
            },
            {
              "internalType": "uint256",
              "name": "entryFee",
              "type": "uint256"
            },
            {
              "internalType": "bytes32",
              "name": "gasLane",
              "type": "bytes32"
            },
            {
              "internalType": "uint64",
              "name": "subscriptionId",
              "type": "uint64"
            },
            {
              "internalType": "uint32",
              "name": "callbackGasLimit",
              "type": "uint32"
            },
            {
              "internalType": "uint256",
              "name": "interval",
              "type": "uint256"
            }
          ],
          "stateMutability": "nonpayable",
          "type": "constructor"
        },
        {
          "inputs": [],
          "name": "Lottery__NotEnoughEthToEnter",
          "type": "error"
        },
        {
          "inputs": [],
          "name": "Lottery__NotOpen",
          "type": "error"
        },
        {
          "inputs": [],
          "name": "Lottery__TransferFailed",
          "type": "error"
        },
        {
          "inputs": [
            {
              "internalType": "uint256",
              "name": "currentBalance",
              "type": "uint256"
            },
            {
              "internalType": "uint256",
              "name": "numPlayers",
              "type": "uint256"
            },
            {
              "internalType": "uint256",
              "name": "lotteryState",
              "type": "uint256"
            }
          ],
          "name": "Lottery__upKeepNotNeeded",
          "type": "error"
        },
        {
          "inputs": [
            {
              "internalType": "address",
              "name": "have",
              "type": "address"
            },
            {
              "internalType": "address",
              "name": "want",
              "type": "address"
            }
          ],
          "name": "OnlyCoordinatorCanFulfill",
          "type": "error"
        },
        {
          "anonymous": false,
          "inputs": [
            {
              "indexed": true,
              "internalType": "address",
              "name": "player",
              "type": "address"
            }
          ],
          "name": "LotteryEnter",
          "type": "event"
        },
        {
          "anonymous": false,
          "inputs": [
            {
              "indexed": true,
              "internalType": "uint256",
              "name": "requestId",
              "type": "uint256"
            }
          ],
          "name": "RequestLotteryWinner",
          "type": "event"
        },
        {
          "anonymous": false,
          "inputs": [
            {
              "indexed": true,
              "internalType": "address",
              "name": "winner",
              "type": "address"
            }
          ],
          "name": "WinnerPicked",
          "type": "event"
        },
        {
          "inputs": [
            {
              "internalType": "bytes",
              "name": "",
              "type": "bytes"
            }
          ],
          "name": "checkUpkeep",
          "outputs": [
            {
              "internalType": "bool",
              "name": "upKeepNeeded",
              "type": "bool"
            },
            {
              "internalType": "bytes",
              "name": "",
              "type": "bytes"
            }
          ],
          "stateMutability": "nonpayable",
          "type": "function"
        },
        {
          "inputs": [],
          "name": "enterLottery",
          "outputs": [],
          "stateMutability": "payable",
          "type": "function"
        },
        {
          "inputs": [],
          "name": "getConfirmations",
          "outputs": [
            {
              "internalType": "uint256",
              "name": "",
              "type": "uint256"
            }
          ],
          "stateMutability": "pure",
          "type": "function"
        },
        {
          "inputs": [],
          "name": "getEntryFee",
          "outputs": [
            {
              "internalType": "uint256",
              "name": "",
              "type": "uint256"
            }
          ],
          "stateMutability": "view",
          "type": "function"
        },
        {
          "inputs": [],
          "name": "getInterval",
          "outputs": [
            {
              "internalType": "uint256",
              "name": "",
              "type": "uint256"
            }
          ],
          "stateMutability": "view",
          "type": "function"
        },
        {
          "inputs": [],
          "name": "getLastTimeStamp",
          "outputs": [
            {
              "internalType": "uint256",
              "name": "",
              "type": "uint256"
            }
          ],
          "stateMutability": "view",
          "type": "function"
        },
        {
          "inputs": [],
          "name": "getLotteryState",
          "outputs": [
            {
              "internalType": "enum Lottery.LotteryState",
              "name": "",
              "type": "uint8"
            }
          ],
          "stateMutability": "view",
          "type": "function"
        },
        {
          "inputs": [],
          "name": "getNumWords",
          "outputs": [
            {
              "internalType": "uint256",
              "name": "",
              "type": "uint256"
            }
          ],
          "stateMutability": "pure",
          "type": "function"
        },
        {
          "inputs": [],
          "name": "getNumberOfPlayers",
          "outputs": [
            {
              "internalType": "uint256",
              "name": "",
              "type": "uint256"
            }
          ],
          "stateMutability": "view",
          "type": "function"
        },
        {
          "inputs": [
            {
              "internalType": "uint256",
              "name": "index",
              "type": "uint256"
            }
          ],
          "name": "getPlayers",
          "outputs": [
            {
              "internalType": "address",
              "name": "",
              "type": "address"
            }
          ],
          "stateMutability": "view",
          "type": "function"
        },
        {
          "inputs": [],
          "name": "getRecentWinner",
          "outputs": [
            {
              "internalType": "address",
              "name": "",
              "type": "address"
            }
          ],
          "stateMutability": "view",
          "type": "function"
        },
        {
          "inputs": [
            {
              "internalType": "bytes",
              "name": "",
              "type": "bytes"
            }
          ],
          "name": "performUpkeep",
          "outputs": [],
          "stateMutability": "nonpayable",
          "type": "function"
        },
        {
          "inputs": [
            {
              "internalType": "uint256",
              "name": "requestId",
              "type": "uint256"
            },
            {
              "internalType": "uint256[]",
              "name": "randomWords",
              "type": "uint256[]"
            }
          ],
          "name": "rawFulfillRandomWords",
          "outputs": [],
          "stateMutability": "nonpayable",
          "type": "function"
        },
        {
          "inputs": [],
          "name": "s_recentWinner",
          "outputs": [
            {
              "internalType": "address",
              "name": "",
              "type": "address"
            }
          ],
          "stateMutability": "view",
          "type": "function"
        }
      ],
      "devdoc": {
        "author": "Ankit",
        "details": "This implements the Chainlink VRF Version 2 and Chainlink Keepers",
        "kind": "dev",
        "methods": {
          "checkUpkeep(bytes)": {
            "details": "This is the function that the Chainlink Keeper nodes call they look for `upkeepNeeded` to return True. the following should be true for this to return true: 1. The time interval has passed between lottery runs. 2. The lottery is open. 3. The contract has ETH. 4. Implicitly, your subscription is funded with LINK."
          }
        },
        "title": "A sample Lottery Contract",
        "version": 1
      },
      "evm": {
        "bytecode": {
          "linkReferences": {},
          "object": "6101606040523480156200001257600080fd5b50604051620018bf380380620018bf833981810160405281019062000038919062000294565b858073ffffffffffffffffffffffffffffffffffffffff1660808173ffffffffffffffffffffffffffffffffffffffff1681525050508460a081815250508573ffffffffffffffffffffffffffffffffffffffff1660c08173ffffffffffffffffffffffffffffffffffffffff16815250508360e081815250508267ffffffffffffffff166101008167ffffffffffffffff16815250508163ffffffff166101208163ffffffff16815250506000600160146101000a81548160ff021916908360018111156200010d576200010c62000330565b5b0217905550426002819055508061014081815250505050505050506200035f565b600080fd5b600073ffffffffffffffffffffffffffffffffffffffff82169050919050565b6000620001608262000133565b9050919050565b620001728162000153565b81146200017e57600080fd5b50565b600081519050620001928162000167565b92915050565b6000819050919050565b620001ad8162000198565b8114620001b957600080fd5b50565b600081519050620001cd81620001a2565b92915050565b6000819050919050565b620001e881620001d3565b8114620001f457600080fd5b50565b6000815190506200020881620001dd565b92915050565b600067ffffffffffffffff82169050919050565b6200022d816200020e565b81146200023957600080fd5b50565b6000815190506200024d8162000222565b92915050565b600063ffffffff82169050919050565b6200026e8162000253565b81146200027a57600080fd5b50565b6000815190506200028e8162000263565b92915050565b60008060008060008060c08789031215620002b457620002b36200012e565b5b6000620002c489828a0162000181565b9650506020620002d789828a01620001bc565b9550506040620002ea89828a01620001f7565b9450506060620002fd89828a016200023c565b93505060806200031089828a016200027d565b92505060a06200032389828a01620001bc565b9150509295509295509295565b7f4e487b7100000000000000000000000000000000000000000000000000000000600052602160045260246000fd5b60805160a05160c05160e0516101005161012051610140516114f0620003cf600039600081816106d301526107670152600061053301526000610510015260006104ef015260006104b301526000818161078d015261091501526000818161033e015261039201526114f06000f3fe6080604052600436106100dd5760003560e01c80638638b0c61161007f578063c1c244e811610059578063c1c244e814610290578063c361ce83146102bb578063e586a4f0146102e6578063fd6673f514610311576100dd565b80638638b0c61461023057806391ad27b41461025b578063c1af578514610286576100dd565b8063473f1ddc116100bb578063473f1ddc1461017157806353a2c19a1461019c5780636b68c03c146101c75780636e04ff0d146101f2576100dd565b80631fe543e3146100e25780634585e33b1461010b578063460e204914610134575b600080fd5b3480156100ee57600080fd5b5061010960048036038101906101049190610dc0565b61033c565b005b34801561011757600080fd5b50610132600480360381019061012d9190610e77565b6103fc565b005b34801561014057600080fd5b5061015b60048036038101906101569190610ec4565b6105fb565b6040516101689190610f32565b60405180910390f35b34801561017d57600080fd5b50610186610642565b6040516101939190610f32565b60405180910390f35b3480156101a857600080fd5b506101b161066c565b6040516101be9190610f5c565b60405180910390f35b3480156101d357600080fd5b506101dc610679565b6040516101e99190610fee565b60405180910390f35b3480156101fe57600080fd5b50610219600480360381019061021491906110be565b610690565b6040516102279291906111aa565b60405180910390f35b34801561023c57600080fd5b5061024561073d565b6040516102529190610f32565b60405180910390f35b34801561026757600080fd5b50610270610763565b60405161027d9190610f5c565b60405180910390f35b61028e61078b565b005b34801561029c57600080fd5b506102a56108fa565b6040516102b29190610f5c565b60405180910390f35b3480156102c757600080fd5b506102d0610904565b6040516102dd9190610f5c565b60405180910390f35b3480156102f257600080fd5b506102fb610911565b6040516103089190610f5c565b60405180910390f35b34801561031d57600080fd5b50610326610939565b6040516103339190610f5c565b60405180910390f35b7f000000000000000000000000000000000000000000000000000000000000000073ffffffffffffffffffffffffffffffffffffffff163373ffffffffffffffffffffffffffffffffffffffff16146103ee57337f00000000000000000000000000000000000000000000000000000000000000006040517f1cf993f40000000000000000000000000000000000000000000000000000000081526004016103e59291906111da565b60405180910390fd5b6103f88282610945565b5050565b600061041660405180602001604052806000815250610690565b509050806104855747600080549050600160149054906101000a900460ff16600181111561044757610446610f77565b5b6040517fca1e13d000000000000000000000000000000000000000000000000000000000815260040161047c93929190611203565b60405180910390fd5b60018060146101000a81548160ff021916908360018111156104aa576104a9610f77565b5b021790555060007f000000000000000000000000000000000000000000000000000000000000000073ffffffffffffffffffffffffffffffffffffffff16635d3b1d307f00000000000000000000000000000000000000000000000000000000000000007f000000000000000000000000000000000000000000000000000000000000000060037f000000000000000000000000000000000000000000000000000000000000000060016040518663ffffffff1660e01b81526004016105749594939291906112ed565b602060405180830381600087803b15801561058e57600080fd5b505af11580156105a2573d6000803e3d6000fd5b505050506040513d601f19601f820116820180604052508101906105c69190611355565b9050807feddaba8a57dcfd3a637ac76edea7af81443028e0bd6e6cb23bd210a4a85ba85660405160405180910390a250505050565b60008082815481106106105761060f611382565b5b9060005260206000200160009054906101000a900473ffffffffffffffffffffffffffffffffffffffff169050919050565b6000600160009054906101000a900473ffffffffffffffffffffffffffffffffffffffff16905090565b6000600161ffff16905090565b6000600160149054906101000a900460ff16905090565b600060606000600160149054906101000a900460ff1660018111156106b8576106b7610f77565b5b600060018111156106cc576106cb610f77565b5b14905060007f00000000000000000000000000000000000000000000000000000000000000006002544261070091906113e0565b119050600080600080549050119050600080471190508380156107205750825b80156107295750805b80156107325750805b955050505050915091565b600160009054906101000a900473ffffffffffffffffffffffffffffffffffffffff1681565b60007f0000000000000000000000000000000000000000000000000000000000000000905090565b7f00000000000000000000000000000000000000000000000000000000000000003410156107e5576040517f67af44a600000000000000000000000000000000000000000000000000000000815260040160405180910390fd5b600060018111156107f9576107f8610f77565b5b600160149054906101000a900460ff16600181111561081b5761081a610f77565b5b14610852576040517fe76be6fc00000000000000000000000000000000000000000000000000000000815260040160405180910390fd5b6000339080600181540180825580915050600190039060005260206000200160009091909190916101000a81548173ffffffffffffffffffffffffffffffffffffffff021916908373ffffffffffffffffffffffffffffffffffffffff1602179055503373ffffffffffffffffffffffffffffffffffffffff167f1d64fb5ba9f2548c5b98468d58f25b87b9e866afee0122e92d9fe722bf85076c60405160405180910390a2565b6000600254905090565b6000600361ffff16905090565b60007f0000000000000000000000000000000000000000000000000000000000000000905090565b60008080549050905090565b60008080549050826000815181106109605761095f611382565b5b60200260200101516109729190611443565b9050600080828154811061098957610988611382565b5b9060005260206000200160009054906101000a900473ffffffffffffffffffffffffffffffffffffffff16905080600160006101000a81548173ffffffffffffffffffffffffffffffffffffffff021916908373ffffffffffffffffffffffffffffffffffffffff1602179055506000600160146101000a81548160ff02191690836001811115610a1d57610a1c610f77565b5b0217905550600067ffffffffffffffff811115610a3d57610a3c610c7d565b5b604051908082528060200260200182016040528015610a6b5781602001602082028036833780820191505090505b5060009080519060200190610a81929190610b76565b504260028190555060008173ffffffffffffffffffffffffffffffffffffffff1647604051610aaf906114a5565b60006040518083038185875af1925050503d8060008114610aec576040519150601f19603f3d011682016040523d82523d6000602084013e610af1565b606091505b5050905080610b2c576040517f1c94012000000000000000000000000000000000000000000000000000000000815260040160405180910390fd5b8173ffffffffffffffffffffffffffffffffffffffff167f5b690ec4a06fe979403046eaeea5b3ce38524683c3001f662c8b5a829632f7df60405160405180910390a25050505050565b828054828255906000526020600020908101928215610bef579160200282015b82811115610bee5782518260006101000a81548173ffffffffffffffffffffffffffffffffffffffff021916908373ffffffffffffffffffffffffffffffffffffffff16021790555091602001919060010190610b96565b5b509050610bfc9190610c00565b5090565b5b80821115610c19576000816000905550600101610c01565b5090565b6000604051905090565b600080fd5b600080fd5b6000819050919050565b610c4481610c31565b8114610c4f57600080fd5b50565b600081359050610c6181610c3b565b92915050565b600080fd5b6000601f19601f8301169050919050565b7f4e487b7100000000000000000000000000000000000000000000000000000000600052604160045260246000fd5b610cb582610c6c565b810181811067ffffffffffffffff82111715610cd457610cd3610c7d565b5b80604052505050565b6000610ce7610c1d565b9050610cf38282610cac565b919050565b600067ffffffffffffffff821115610d1357610d12610c7d565b5b602082029050602081019050919050565b600080fd5b6000610d3c610d3784610cf8565b610cdd565b90508083825260208201905060208402830185811115610d5f57610d5e610d24565b5b835b81811015610d885780610d748882610c52565b845260208401935050602081019050610d61565b5050509392505050565b600082601f830112610da757610da6610c67565b5b8135610db7848260208601610d29565b91505092915050565b60008060408385031215610dd757610dd6610c27565b5b6000610de585828601610c52565b925050602083013567ffffffffffffffff811115610e0657610e05610c2c565b5b610e1285828601610d92565b9150509250929050565b600080fd5b60008083601f840112610e3757610e36610c67565b5b8235905067ffffffffffffffff811115610e5457610e53610e1c565b5b602083019150836001820283011115610e7057610e6f610d24565b5b9250929050565b60008060208385031215610e8e57610e8d610c27565b5b600083013567ffffffffffffffff811115610eac57610eab610c2c565b5b610eb885828601610e21565b92509250509250929050565b600060208284031215610eda57610ed9610c27565b5b6000610ee884828501610c52565b91505092915050565b600073ffffffffffffffffffffffffffffffffffffffff82169050919050565b6000610f1c82610ef1565b9050919050565b610f2c81610f11565b82525050565b6000602082019050610f476000830184610f23565b92915050565b610f5681610c31565b82525050565b6000602082019050610f716000830184610f4d565b92915050565b7f4e487b7100000000000000000000000000000000000000000000000000000000600052602160045260246000fd5b60028110610fb757610fb6610f77565b5b50565b6000819050610fc882610fa6565b919050565b6000610fd882610fba565b9050919050565b610fe881610fcd565b82525050565b60006020820190506110036000830184610fdf565b92915050565b600080fd5b600067ffffffffffffffff82111561102957611028610c7d565b5b61103282610c6c565b9050602081019050919050565b82818337600083830152505050565b600061106161105c8461100e565b610cdd565b90508281526020810184848401111561107d5761107c611009565b5b61108884828561103f565b509392505050565b600082601f8301126110a5576110a4610c67565b5b81356110b584826020860161104e565b91505092915050565b6000602082840312156110d4576110d3610c27565b5b600082013567ffffffffffffffff8111156110f2576110f1610c2c565b5b6110fe84828501611090565b91505092915050565b60008115159050919050565b61111c81611107565b82525050565b600081519050919050565b600082825260208201905092915050565b60005b8381101561115c578082015181840152602081019050611141565b8381111561116b576000848401525b50505050565b600061117c82611122565b611186818561112d565b935061119681856020860161113e565b61119f81610c6c565b840191505092915050565b60006040820190506111bf6000830185611113565b81810360208301526111d18184611171565b90509392505050565b60006040820190506111ef6000830185610f23565b6111fc6020830184610f23565b9392505050565b60006060820190506112186000830186610f4d565b6112256020830185610f4d565b6112326040830184610f4d565b949350505050565b6000819050919050565b61124d8161123a565b82525050565b600067ffffffffffffffff82169050919050565b61127081611253565b82525050565b600061ffff82169050919050565b61128d81611276565b82525050565b600063ffffffff82169050919050565b6112ac81611293565b82525050565b6000819050919050565b60006112d76112d26112cd84611276565b6112b2565b611293565b9050919050565b6112e7816112bc565b82525050565b600060a0820190506113026000830188611244565b61130f6020830187611267565b61131c6040830186611284565b61132960608301856112a3565b61133660808301846112de565b9695505050505050565b60008151905061134f81610c3b565b92915050565b60006020828403121561136b5761136a610c27565b5b600061137984828501611340565b91505092915050565b7f4e487b7100000000000000000000000000000000000000000000000000000000600052603260045260246000fd5b7f4e487b7100000000000000000000000000000000000000000000000000000000600052601160045260246000fd5b60006113eb82610c31565b91506113f683610c31565b925082821015611409576114086113b1565b5b828203905092915050565b7f4e487b7100000000000000000000000000000000000000000000000000000000600052601260045260246000fd5b600061144e82610c31565b915061145983610c31565b92508261146957611468611414565b5b828206905092915050565b600081905092915050565b50565b600061148f600083611474565b915061149a8261147f565b600082019050919050565b60006114b082611482565b915081905091905056fea264697066735822122045f145828607a72fcc75b36776b03c49ed62aabc75a9de42e1100959ed818ab364736f6c63430008090033",
          "opcodes": "PUSH2 0x160 PUSH1 0x40 MSTORE CALLVALUE DUP1 ISZERO PUSH3 0x12 JUMPI PUSH1 0x0 DUP1 REVERT JUMPDEST POP PUSH1 0x40 MLOAD PUSH3 0x18BF CODESIZE SUB DUP1 PUSH3 0x18BF DUP4 CODECOPY DUP2 DUP2 ADD PUSH1 0x40 MSTORE DUP2 ADD SWAP1 PUSH3 0x38 SWAP2 SWAP1 PUSH3 0x294 JUMP JUMPDEST DUP6 DUP1 PUSH20 0xFFFFFFFFFFFFFFFFFFFFFFFFFFFFFFFFFFFFFFFF AND PUSH1 0x80 DUP2 PUSH20 0xFFFFFFFFFFFFFFFFFFFFFFFFFFFFFFFFFFFFFFFF AND DUP2 MSTORE POP POP POP DUP5 PUSH1 0xA0 DUP2 DUP2 MSTORE POP POP DUP6 PUSH20 0xFFFFFFFFFFFFFFFFFFFFFFFFFFFFFFFFFFFFFFFF AND PUSH1 0xC0 DUP2 PUSH20 0xFFFFFFFFFFFFFFFFFFFFFFFFFFFFFFFFFFFFFFFF AND DUP2 MSTORE POP POP DUP4 PUSH1 0xE0 DUP2 DUP2 MSTORE POP POP DUP3 PUSH8 0xFFFFFFFFFFFFFFFF AND PUSH2 0x100 DUP2 PUSH8 0xFFFFFFFFFFFFFFFF AND DUP2 MSTORE POP POP DUP2 PUSH4 0xFFFFFFFF AND PUSH2 0x120 DUP2 PUSH4 0xFFFFFFFF AND DUP2 MSTORE POP POP PUSH1 0x0 PUSH1 0x1 PUSH1 0x14 PUSH2 0x100 EXP DUP2 SLOAD DUP2 PUSH1 0xFF MUL NOT AND SWAP1 DUP4 PUSH1 0x1 DUP2 GT ISZERO PUSH3 0x10D JUMPI PUSH3 0x10C PUSH3 0x330 JUMP JUMPDEST JUMPDEST MUL OR SWAP1 SSTORE POP TIMESTAMP PUSH1 0x2 DUP2 SWAP1 SSTORE POP DUP1 PUSH2 0x140 DUP2 DUP2 MSTORE POP POP POP POP POP POP POP POP PUSH3 0x35F JUMP JUMPDEST PUSH1 0x0 DUP1 REVERT JUMPDEST PUSH1 0x0 PUSH20 0xFFFFFFFFFFFFFFFFFFFFFFFFFFFFFFFFFFFFFFFF DUP3 AND SWAP1 POP SWAP2 SWAP1 POP JUMP JUMPDEST PUSH1 0x0 PUSH3 0x160 DUP3 PUSH3 0x133 JUMP JUMPDEST SWAP1 POP SWAP2 SWAP1 POP JUMP JUMPDEST PUSH3 0x172 DUP2 PUSH3 0x153 JUMP JUMPDEST DUP2 EQ PUSH3 0x17E JUMPI PUSH1 0x0 DUP1 REVERT JUMPDEST POP JUMP JUMPDEST PUSH1 0x0 DUP2 MLOAD SWAP1 POP PUSH3 0x192 DUP2 PUSH3 0x167 JUMP JUMPDEST SWAP3 SWAP2 POP POP JUMP JUMPDEST PUSH1 0x0 DUP2 SWAP1 POP SWAP2 SWAP1 POP JUMP JUMPDEST PUSH3 0x1AD DUP2 PUSH3 0x198 JUMP JUMPDEST DUP2 EQ PUSH3 0x1B9 JUMPI PUSH1 0x0 DUP1 REVERT JUMPDEST POP JUMP JUMPDEST PUSH1 0x0 DUP2 MLOAD SWAP1 POP PUSH3 0x1CD DUP2 PUSH3 0x1A2 JUMP JUMPDEST SWAP3 SWAP2 POP POP JUMP JUMPDEST PUSH1 0x0 DUP2 SWAP1 POP SWAP2 SWAP1 POP JUMP JUMPDEST PUSH3 0x1E8 DUP2 PUSH3 0x1D3 JUMP JUMPDEST DUP2 EQ PUSH3 0x1F4 JUMPI PUSH1 0x0 DUP1 REVERT JUMPDEST POP JUMP JUMPDEST PUSH1 0x0 DUP2 MLOAD SWAP1 POP PUSH3 0x208 DUP2 PUSH3 0x1DD JUMP JUMPDEST SWAP3 SWAP2 POP POP JUMP JUMPDEST PUSH1 0x0 PUSH8 0xFFFFFFFFFFFFFFFF DUP3 AND SWAP1 POP SWAP2 SWAP1 POP JUMP JUMPDEST PUSH3 0x22D DUP2 PUSH3 0x20E JUMP JUMPDEST DUP2 EQ PUSH3 0x239 JUMPI PUSH1 0x0 DUP1 REVERT JUMPDEST POP JUMP JUMPDEST PUSH1 0x0 DUP2 MLOAD SWAP1 POP PUSH3 0x24D DUP2 PUSH3 0x222 JUMP JUMPDEST SWAP3 SWAP2 POP POP JUMP JUMPDEST PUSH1 0x0 PUSH4 0xFFFFFFFF DUP3 AND SWAP1 POP SWAP2 SWAP1 POP JUMP JUMPDEST PUSH3 0x26E DUP2 PUSH3 0x253 JUMP JUMPDEST DUP2 EQ PUSH3 0x27A JUMPI PUSH1 0x0 DUP1 REVERT JUMPDEST POP JUMP JUMPDEST PUSH1 0x0 DUP2 MLOAD SWAP1 POP PUSH3 0x28E DUP2 PUSH3 0x263 JUMP JUMPDEST SWAP3 SWAP2 POP POP JUMP JUMPDEST PUSH1 0x0 DUP1 PUSH1 0x0 DUP1 PUSH1 0x0 DUP1 PUSH1 0xC0 DUP8 DUP10 SUB SLT ISZERO PUSH3 0x2B4 JUMPI PUSH3 0x2B3 PUSH3 0x12E JUMP JUMPDEST JUMPDEST PUSH1 0x0 PUSH3 0x2C4 DUP10 DUP3 DUP11 ADD PUSH3 0x181 JUMP JUMPDEST SWAP7 POP POP PUSH1 0x20 PUSH3 0x2D7 DUP10 DUP3 DUP11 ADD PUSH3 0x1BC JUMP JUMPDEST SWAP6 POP POP PUSH1 0x40 PUSH3 0x2EA DUP10 DUP3 DUP11 ADD PUSH3 0x1F7 JUMP JUMPDEST SWAP5 POP POP PUSH1 0x60 PUSH3 0x2FD DUP10 DUP3 DUP11 ADD PUSH3 0x23C JUMP JUMPDEST SWAP4 POP POP PUSH1 0x80 PUSH3 0x310 DUP10 DUP3 DUP11 ADD PUSH3 0x27D JUMP JUMPDEST SWAP3 POP POP PUSH1 0xA0 PUSH3 0x323 DUP10 DUP3 DUP11 ADD PUSH3 0x1BC JUMP JUMPDEST SWAP2 POP POP SWAP3 SWAP6 POP SWAP3 SWAP6 POP SWAP3 SWAP6 JUMP JUMPDEST PUSH32 0x4E487B7100000000000000000000000000000000000000000000000000000000 PUSH1 0x0 MSTORE PUSH1 0x21 PUSH1 0x4 MSTORE PUSH1 0x24 PUSH1 0x0 REVERT JUMPDEST PUSH1 0x80 MLOAD PUSH1 0xA0 MLOAD PUSH1 0xC0 MLOAD PUSH1 0xE0 MLOAD PUSH2 0x100 MLOAD PUSH2 0x120 MLOAD PUSH2 0x140 MLOAD PUSH2 0x14F0 PUSH3 0x3CF PUSH1 0x0 CODECOPY PUSH1 0x0 DUP2 DUP2 PUSH2 0x6D3 ADD MSTORE PUSH2 0x767 ADD MSTORE PUSH1 0x0 PUSH2 0x533 ADD MSTORE PUSH1 0x0 PUSH2 0x510 ADD MSTORE PUSH1 0x0 PUSH2 0x4EF ADD MSTORE PUSH1 0x0 PUSH2 0x4B3 ADD MSTORE PUSH1 0x0 DUP2 DUP2 PUSH2 0x78D ADD MSTORE PUSH2 0x915 ADD MSTORE PUSH1 0x0 DUP2 DUP2 PUSH2 0x33E ADD MSTORE PUSH2 0x392 ADD MSTORE PUSH2 0x14F0 PUSH1 0x0 RETURN INVALID PUSH1 0x80 PUSH1 0x40 MSTORE PUSH1 0x4 CALLDATASIZE LT PUSH2 0xDD JUMPI PUSH1 0x0 CALLDATALOAD PUSH1 0xE0 SHR DUP1 PUSH4 0x8638B0C6 GT PUSH2 0x7F JUMPI DUP1 PUSH4 0xC1C244E8 GT PUSH2 0x59 JUMPI DUP1 PUSH4 0xC1C244E8 EQ PUSH2 0x290 JUMPI DUP1 PUSH4 0xC361CE83 EQ PUSH2 0x2BB JUMPI DUP1 PUSH4 0xE586A4F0 EQ PUSH2 0x2E6 JUMPI DUP1 PUSH4 0xFD6673F5 EQ PUSH2 0x311 JUMPI PUSH2 0xDD JUMP JUMPDEST DUP1 PUSH4 0x8638B0C6 EQ PUSH2 0x230 JUMPI DUP1 PUSH4 0x91AD27B4 EQ PUSH2 0x25B JUMPI DUP1 PUSH4 0xC1AF5785 EQ PUSH2 0x286 JUMPI PUSH2 0xDD JUMP JUMPDEST DUP1 PUSH4 0x473F1DDC GT PUSH2 0xBB JUMPI DUP1 PUSH4 0x473F1DDC EQ PUSH2 0x171 JUMPI DUP1 PUSH4 0x53A2C19A EQ PUSH2 0x19C JUMPI DUP1 PUSH4 0x6B68C03C EQ PUSH2 0x1C7 JUMPI DUP1 PUSH4 0x6E04FF0D EQ PUSH2 0x1F2 JUMPI PUSH2 0xDD JUMP JUMPDEST DUP1 PUSH4 0x1FE543E3 EQ PUSH2 0xE2 JUMPI DUP1 PUSH4 0x4585E33B EQ PUSH2 0x10B JUMPI DUP1 PUSH4 0x460E2049 EQ PUSH2 0x134 JUMPI JUMPDEST PUSH1 0x0 DUP1 REVERT JUMPDEST CALLVALUE DUP1 ISZERO PUSH2 0xEE JUMPI PUSH1 0x0 DUP1 REVERT JUMPDEST POP PUSH2 0x109 PUSH1 0x4 DUP1 CALLDATASIZE SUB DUP2 ADD SWAP1 PUSH2 0x104 SWAP2 SWAP1 PUSH2 0xDC0 JUMP JUMPDEST PUSH2 0x33C JUMP JUMPDEST STOP JUMPDEST CALLVALUE DUP1 ISZERO PUSH2 0x117 JUMPI PUSH1 0x0 DUP1 REVERT JUMPDEST POP PUSH2 0x132 PUSH1 0x4 DUP1 CALLDATASIZE SUB DUP2 ADD SWAP1 PUSH2 0x12D SWAP2 SWAP1 PUSH2 0xE77 JUMP JUMPDEST PUSH2 0x3FC JUMP JUMPDEST STOP JUMPDEST CALLVALUE DUP1 ISZERO PUSH2 0x140 JUMPI PUSH1 0x0 DUP1 REVERT JUMPDEST POP PUSH2 0x15B PUSH1 0x4 DUP1 CALLDATASIZE SUB DUP2 ADD SWAP1 PUSH2 0x156 SWAP2 SWAP1 PUSH2 0xEC4 JUMP JUMPDEST PUSH2 0x5FB JUMP JUMPDEST PUSH1 0x40 MLOAD PUSH2 0x168 SWAP2 SWAP1 PUSH2 0xF32 JUMP JUMPDEST PUSH1 0x40 MLOAD DUP1 SWAP2 SUB SWAP1 RETURN JUMPDEST CALLVALUE DUP1 ISZERO PUSH2 0x17D JUMPI PUSH1 0x0 DUP1 REVERT JUMPDEST POP PUSH2 0x186 PUSH2 0x642 JUMP JUMPDEST PUSH1 0x40 MLOAD PUSH2 0x193 SWAP2 SWAP1 PUSH2 0xF32 JUMP JUMPDEST PUSH1 0x40 MLOAD DUP1 SWAP2 SUB SWAP1 RETURN JUMPDEST CALLVALUE DUP1 ISZERO PUSH2 0x1A8 JUMPI PUSH1 0x0 DUP1 REVERT JUMPDEST POP PUSH2 0x1B1 PUSH2 0x66C JUMP JUMPDEST PUSH1 0x40 MLOAD PUSH2 0x1BE SWAP2 SWAP1 PUSH2 0xF5C JUMP JUMPDEST PUSH1 0x40 MLOAD DUP1 SWAP2 SUB SWAP1 RETURN JUMPDEST CALLVALUE DUP1 ISZERO PUSH2 0x1D3 JUMPI PUSH1 0x0 DUP1 REVERT JUMPDEST POP PUSH2 0x1DC PUSH2 0x679 JUMP JUMPDEST PUSH1 0x40 MLOAD PUSH2 0x1E9 SWAP2 SWAP1 PUSH2 0xFEE JUMP JUMPDEST PUSH1 0x40 MLOAD DUP1 SWAP2 SUB SWAP1 RETURN JUMPDEST CALLVALUE DUP1 ISZERO PUSH2 0x1FE JUMPI PUSH1 0x0 DUP1 REVERT JUMPDEST POP PUSH2 0x219 PUSH1 0x4 DUP1 CALLDATASIZE SUB DUP2 ADD SWAP1 PUSH2 0x214 SWAP2 SWAP1 PUSH2 0x10BE JUMP JUMPDEST PUSH2 0x690 JUMP JUMPDEST PUSH1 0x40 MLOAD PUSH2 0x227 SWAP3 SWAP2 SWAP1 PUSH2 0x11AA JUMP JUMPDEST PUSH1 0x40 MLOAD DUP1 SWAP2 SUB SWAP1 RETURN JUMPDEST CALLVALUE DUP1 ISZERO PUSH2 0x23C JUMPI PUSH1 0x0 DUP1 REVERT JUMPDEST POP PUSH2 0x245 PUSH2 0x73D JUMP JUMPDEST PUSH1 0x40 MLOAD PUSH2 0x252 SWAP2 SWAP1 PUSH2 0xF32 JUMP JUMPDEST PUSH1 0x40 MLOAD DUP1 SWAP2 SUB SWAP1 RETURN JUMPDEST CALLVALUE DUP1 ISZERO PUSH2 0x267 JUMPI PUSH1 0x0 DUP1 REVERT JUMPDEST POP PUSH2 0x270 PUSH2 0x763 JUMP JUMPDEST PUSH1 0x40 MLOAD PUSH2 0x27D SWAP2 SWAP1 PUSH2 0xF5C JUMP JUMPDEST PUSH1 0x40 MLOAD DUP1 SWAP2 SUB SWAP1 RETURN JUMPDEST PUSH2 0x28E PUSH2 0x78B JUMP JUMPDEST STOP JUMPDEST CALLVALUE DUP1 ISZERO PUSH2 0x29C JUMPI PUSH1 0x0 DUP1 REVERT JUMPDEST POP PUSH2 0x2A5 PUSH2 0x8FA JUMP JUMPDEST PUSH1 0x40 MLOAD PUSH2 0x2B2 SWAP2 SWAP1 PUSH2 0xF5C JUMP JUMPDEST PUSH1 0x40 MLOAD DUP1 SWAP2 SUB SWAP1 RETURN JUMPDEST CALLVALUE DUP1 ISZERO PUSH2 0x2C7 JUMPI PUSH1 0x0 DUP1 REVERT JUMPDEST POP PUSH2 0x2D0 PUSH2 0x904 JUMP JUMPDEST PUSH1 0x40 MLOAD PUSH2 0x2DD SWAP2 SWAP1 PUSH2 0xF5C JUMP JUMPDEST PUSH1 0x40 MLOAD DUP1 SWAP2 SUB SWAP1 RETURN JUMPDEST CALLVALUE DUP1 ISZERO PUSH2 0x2F2 JUMPI PUSH1 0x0 DUP1 REVERT JUMPDEST POP PUSH2 0x2FB PUSH2 0x911 JUMP JUMPDEST PUSH1 0x40 MLOAD PUSH2 0x308 SWAP2 SWAP1 PUSH2 0xF5C JUMP JUMPDEST PUSH1 0x40 MLOAD DUP1 SWAP2 SUB SWAP1 RETURN JUMPDEST CALLVALUE DUP1 ISZERO PUSH2 0x31D JUMPI PUSH1 0x0 DUP1 REVERT JUMPDEST POP PUSH2 0x326 PUSH2 0x939 JUMP JUMPDEST PUSH1 0x40 MLOAD PUSH2 0x333 SWAP2 SWAP1 PUSH2 0xF5C JUMP JUMPDEST PUSH1 0x40 MLOAD DUP1 SWAP2 SUB SWAP1 RETURN JUMPDEST PUSH32 0x0 PUSH20 0xFFFFFFFFFFFFFFFFFFFFFFFFFFFFFFFFFFFFFFFF AND CALLER PUSH20 0xFFFFFFFFFFFFFFFFFFFFFFFFFFFFFFFFFFFFFFFF AND EQ PUSH2 0x3EE JUMPI CALLER PUSH32 0x0 PUSH1 0x40 MLOAD PUSH32 0x1CF993F400000000000000000000000000000000000000000000000000000000 DUP2 MSTORE PUSH1 0x4 ADD PUSH2 0x3E5 SWAP3 SWAP2 SWAP1 PUSH2 0x11DA JUMP JUMPDEST PUSH1 0x40 MLOAD DUP1 SWAP2 SUB SWAP1 REVERT JUMPDEST PUSH2 0x3F8 DUP3 DUP3 PUSH2 0x945 JUMP JUMPDEST POP POP JUMP JUMPDEST PUSH1 0x0 PUSH2 0x416 PUSH1 0x40 MLOAD DUP1 PUSH1 0x20 ADD PUSH1 0x40 MSTORE DUP1 PUSH1 0x0 DUP2 MSTORE POP PUSH2 0x690 JUMP JUMPDEST POP SWAP1 POP DUP1 PUSH2 0x485 JUMPI SELFBALANCE PUSH1 0x0 DUP1 SLOAD SWAP1 POP PUSH1 0x1 PUSH1 0x14 SWAP1 SLOAD SWAP1 PUSH2 0x100 EXP SWAP1 DIV PUSH1 0xFF AND PUSH1 0x1 DUP2 GT ISZERO PUSH2 0x447 JUMPI PUSH2 0x446 PUSH2 0xF77 JUMP JUMPDEST JUMPDEST PUSH1 0x40 MLOAD PUSH32 0xCA1E13D000000000000000000000000000000000000000000000000000000000 DUP2 MSTORE PUSH1 0x4 ADD PUSH2 0x47C SWAP4 SWAP3 SWAP2 SWAP1 PUSH2 0x1203 JUMP JUMPDEST PUSH1 0x40 MLOAD DUP1 SWAP2 SUB SWAP1 REVERT JUMPDEST PUSH1 0x1 DUP1 PUSH1 0x14 PUSH2 0x100 EXP DUP2 SLOAD DUP2 PUSH1 0xFF MUL NOT AND SWAP1 DUP4 PUSH1 0x1 DUP2 GT ISZERO PUSH2 0x4AA JUMPI PUSH2 0x4A9 PUSH2 0xF77 JUMP JUMPDEST JUMPDEST MUL OR SWAP1 SSTORE POP PUSH1 0x0 PUSH32 0x0 PUSH20 0xFFFFFFFFFFFFFFFFFFFFFFFFFFFFFFFFFFFFFFFF AND PUSH4 0x5D3B1D30 PUSH32 0x0 PUSH32 0x0 PUSH1 0x3 PUSH32 0x0 PUSH1 0x1 PUSH1 0x40 MLOAD DUP7 PUSH4 0xFFFFFFFF AND PUSH1 0xE0 SHL DUP2 MSTORE PUSH1 0x4 ADD PUSH2 0x574 SWAP6 SWAP5 SWAP4 SWAP3 SWAP2 SWAP1 PUSH2 0x12ED JUMP JUMPDEST PUSH1 0x20 PUSH1 0x40 MLOAD DUP1 DUP4 SUB DUP2 PUSH1 0x0 DUP8 DUP1 EXTCODESIZE ISZERO DUP1 ISZERO PUSH2 0x58E JUMPI PUSH1 0x0 DUP1 REVERT JUMPDEST POP GAS CALL ISZERO DUP1 ISZERO PUSH2 0x5A2 JUMPI RETURNDATASIZE PUSH1 0x0 DUP1 RETURNDATACOPY RETURNDATASIZE PUSH1 0x0 REVERT JUMPDEST POP POP POP POP PUSH1 0x40 MLOAD RETURNDATASIZE PUSH1 0x1F NOT PUSH1 0x1F DUP3 ADD AND DUP3 ADD DUP1 PUSH1 0x40 MSTORE POP DUP2 ADD SWAP1 PUSH2 0x5C6 SWAP2 SWAP1 PUSH2 0x1355 JUMP JUMPDEST SWAP1 POP DUP1 PUSH32 0xEDDABA8A57DCFD3A637AC76EDEA7AF81443028E0BD6E6CB23BD210A4A85BA856 PUSH1 0x40 MLOAD PUSH1 0x40 MLOAD DUP1 SWAP2 SUB SWAP1 LOG2 POP POP POP POP JUMP JUMPDEST PUSH1 0x0 DUP1 DUP3 DUP2 SLOAD DUP2 LT PUSH2 0x610 JUMPI PUSH2 0x60F PUSH2 0x1382 JUMP JUMPDEST JUMPDEST SWAP1 PUSH1 0x0 MSTORE PUSH1 0x20 PUSH1 0x0 KECCAK256 ADD PUSH1 0x0 SWAP1 SLOAD SWAP1 PUSH2 0x100 EXP SWAP1 DIV PUSH20 0xFFFFFFFFFFFFFFFFFFFFFFFFFFFFFFFFFFFFFFFF AND SWAP1 POP SWAP2 SWAP1 POP JUMP JUMPDEST PUSH1 0x0 PUSH1 0x1 PUSH1 0x0 SWAP1 SLOAD SWAP1 PUSH2 0x100 EXP SWAP1 DIV PUSH20 0xFFFFFFFFFFFFFFFFFFFFFFFFFFFFFFFFFFFFFFFF AND SWAP1 POP SWAP1 JUMP JUMPDEST PUSH1 0x0 PUSH1 0x1 PUSH2 0xFFFF AND SWAP1 POP SWAP1 JUMP JUMPDEST PUSH1 0x0 PUSH1 0x1 PUSH1 0x14 SWAP1 SLOAD SWAP1 PUSH2 0x100 EXP SWAP1 DIV PUSH1 0xFF AND SWAP1 POP SWAP1 JUMP JUMPDEST PUSH1 0x0 PUSH1 0x60 PUSH1 0x0 PUSH1 0x1 PUSH1 0x14 SWAP1 SLOAD SWAP1 PUSH2 0x100 EXP SWAP1 DIV PUSH1 0xFF AND PUSH1 0x1 DUP2 GT ISZERO PUSH2 0x6B8 JUMPI PUSH2 0x6B7 PUSH2 0xF77 JUMP JUMPDEST JUMPDEST PUSH1 0x0 PUSH1 0x1 DUP2 GT ISZERO PUSH2 0x6CC JUMPI PUSH2 0x6CB PUSH2 0xF77 JUMP JUMPDEST JUMPDEST EQ SWAP1 POP PUSH1 0x0 PUSH32 0x0 PUSH1 0x2 SLOAD TIMESTAMP PUSH2 0x700 SWAP2 SWAP1 PUSH2 0x13E0 JUMP JUMPDEST GT SWAP1 POP PUSH1 0x0 DUP1 PUSH1 0x0 DUP1 SLOAD SWAP1 POP GT SWAP1 POP PUSH1 0x0 DUP1 SELFBALANCE GT SWAP1 POP DUP4 DUP1 ISZERO PUSH2 0x720 JUMPI POP DUP3 JUMPDEST DUP1 ISZERO PUSH2 0x729 JUMPI POP DUP1 JUMPDEST DUP1 ISZERO PUSH2 0x732 JUMPI POP DUP1 JUMPDEST SWAP6 POP POP POP POP POP SWAP2 POP SWAP2 JUMP JUMPDEST PUSH1 0x1 PUSH1 0x0 SWAP1 SLOAD SWAP1 PUSH2 0x100 EXP SWAP1 DIV PUSH20 0xFFFFFFFFFFFFFFFFFFFFFFFFFFFFFFFFFFFFFFFF AND DUP2 JUMP JUMPDEST PUSH1 0x0 PUSH32 0x0 SWAP1 POP SWAP1 JUMP JUMPDEST PUSH32 0x0 CALLVALUE LT ISZERO PUSH2 0x7E5 JUMPI PUSH1 0x40 MLOAD PUSH32 0x67AF44A600000000000000000000000000000000000000000000000000000000 DUP2 MSTORE PUSH1 0x4 ADD PUSH1 0x40 MLOAD DUP1 SWAP2 SUB SWAP1 REVERT JUMPDEST PUSH1 0x0 PUSH1 0x1 DUP2 GT ISZERO PUSH2 0x7F9 JUMPI PUSH2 0x7F8 PUSH2 0xF77 JUMP JUMPDEST JUMPDEST PUSH1 0x1 PUSH1 0x14 SWAP1 SLOAD SWAP1 PUSH2 0x100 EXP SWAP1 DIV PUSH1 0xFF AND PUSH1 0x1 DUP2 GT ISZERO PUSH2 0x81B JUMPI PUSH2 0x81A PUSH2 0xF77 JUMP JUMPDEST JUMPDEST EQ PUSH2 0x852 JUMPI PUSH1 0x40 MLOAD PUSH32 0xE76BE6FC00000000000000000000000000000000000000000000000000000000 DUP2 MSTORE PUSH1 0x4 ADD PUSH1 0x40 MLOAD DUP1 SWAP2 SUB SWAP1 REVERT JUMPDEST PUSH1 0x0 CALLER SWAP1 DUP1 PUSH1 0x1 DUP2 SLOAD ADD DUP1 DUP3 SSTORE DUP1 SWAP2 POP POP PUSH1 0x1 SWAP1 SUB SWAP1 PUSH1 0x0 MSTORE PUSH1 0x20 PUSH1 0x0 KECCAK256 ADD PUSH1 0x0 SWAP1 SWAP2 SWAP1 SWAP2 SWAP1 SWAP2 PUSH2 0x100 EXP DUP2 SLOAD DUP2 PUSH20 0xFFFFFFFFFFFFFFFFFFFFFFFFFFFFFFFFFFFFFFFF MUL NOT AND SWAP1 DUP4 PUSH20 0xFFFFFFFFFFFFFFFFFFFFFFFFFFFFFFFFFFFFFFFF AND MUL OR SWAP1 SSTORE POP CALLER PUSH20 0xFFFFFFFFFFFFFFFFFFFFFFFFFFFFFFFFFFFFFFFF AND PUSH32 0x1D64FB5BA9F2548C5B98468D58F25B87B9E866AFEE0122E92D9FE722BF85076C PUSH1 0x40 MLOAD PUSH1 0x40 MLOAD DUP1 SWAP2 SUB SWAP1 LOG2 JUMP JUMPDEST PUSH1 0x0 PUSH1 0x2 SLOAD SWAP1 POP SWAP1 JUMP JUMPDEST PUSH1 0x0 PUSH1 0x3 PUSH2 0xFFFF AND SWAP1 POP SWAP1 JUMP JUMPDEST PUSH1 0x0 PUSH32 0x0 SWAP1 POP SWAP1 JUMP JUMPDEST PUSH1 0x0 DUP1 DUP1 SLOAD SWAP1 POP SWAP1 POP SWAP1 JUMP JUMPDEST PUSH1 0x0 DUP1 DUP1 SLOAD SWAP1 POP DUP3 PUSH1 0x0 DUP2 MLOAD DUP2 LT PUSH2 0x960 JUMPI PUSH2 0x95F PUSH2 0x1382 JUMP JUMPDEST JUMPDEST PUSH1 0x20 MUL PUSH1 0x20 ADD ADD MLOAD PUSH2 0x972 SWAP2 SWAP1 PUSH2 0x1443 JUMP JUMPDEST SWAP1 POP PUSH1 0x0 DUP1 DUP3 DUP2 SLOAD DUP2 LT PUSH2 0x989 JUMPI PUSH2 0x988 PUSH2 0x1382 JUMP JUMPDEST JUMPDEST SWAP1 PUSH1 0x0 MSTORE PUSH1 0x20 PUSH1 0x0 KECCAK256 ADD PUSH1 0x0 SWAP1 SLOAD SWAP1 PUSH2 0x100 EXP SWAP1 DIV PUSH20 0xFFFFFFFFFFFFFFFFFFFFFFFFFFFFFFFFFFFFFFFF AND SWAP1 POP DUP1 PUSH1 0x1 PUSH1 0x0 PUSH2 0x100 EXP DUP2 SLOAD DUP2 PUSH20 0xFFFFFFFFFFFFFFFFFFFFFFFFFFFFFFFFFFFFFFFF MUL NOT AND SWAP1 DUP4 PUSH20 0xFFFFFFFFFFFFFFFFFFFFFFFFFFFFFFFFFFFFFFFF AND MUL OR SWAP1 SSTORE POP PUSH1 0x0 PUSH1 0x1 PUSH1 0x14 PUSH2 0x100 EXP DUP2 SLOAD DUP2 PUSH1 0xFF MUL NOT AND SWAP1 DUP4 PUSH1 0x1 DUP2 GT ISZERO PUSH2 0xA1D JUMPI PUSH2 0xA1C PUSH2 0xF77 JUMP JUMPDEST JUMPDEST MUL OR SWAP1 SSTORE POP PUSH1 0x0 PUSH8 0xFFFFFFFFFFFFFFFF DUP2 GT ISZERO PUSH2 0xA3D JUMPI PUSH2 0xA3C PUSH2 0xC7D JUMP JUMPDEST JUMPDEST PUSH1 0x40 MLOAD SWAP1 DUP1 DUP3 MSTORE DUP1 PUSH1 0x20 MUL PUSH1 0x20 ADD DUP3 ADD PUSH1 0x40 MSTORE DUP1 ISZERO PUSH2 0xA6B JUMPI DUP2 PUSH1 0x20 ADD PUSH1 0x20 DUP3 MUL DUP1 CALLDATASIZE DUP4 CALLDATACOPY DUP1 DUP3 ADD SWAP2 POP POP SWAP1 POP JUMPDEST POP PUSH1 0x0 SWAP1 DUP1 MLOAD SWAP1 PUSH1 0x20 ADD SWAP1 PUSH2 0xA81 SWAP3 SWAP2 SWAP1 PUSH2 0xB76 JUMP JUMPDEST POP TIMESTAMP PUSH1 0x2 DUP2 SWAP1 SSTORE POP PUSH1 0x0 DUP2 PUSH20 0xFFFFFFFFFFFFFFFFFFFFFFFFFFFFFFFFFFFFFFFF AND SELFBALANCE PUSH1 0x40 MLOAD PUSH2 0xAAF SWAP1 PUSH2 0x14A5 JUMP JUMPDEST PUSH1 0x0 PUSH1 0x40 MLOAD DUP1 DUP4 SUB DUP2 DUP6 DUP8 GAS CALL SWAP3 POP POP POP RETURNDATASIZE DUP1 PUSH1 0x0 DUP2 EQ PUSH2 0xAEC JUMPI PUSH1 0x40 MLOAD SWAP2 POP PUSH1 0x1F NOT PUSH1 0x3F RETURNDATASIZE ADD AND DUP3 ADD PUSH1 0x40 MSTORE RETURNDATASIZE DUP3 MSTORE RETURNDATASIZE PUSH1 0x0 PUSH1 0x20 DUP5 ADD RETURNDATACOPY PUSH2 0xAF1 JUMP JUMPDEST PUSH1 0x60 SWAP2 POP JUMPDEST POP POP SWAP1 POP DUP1 PUSH2 0xB2C JUMPI PUSH1 0x40 MLOAD PUSH32 0x1C94012000000000000000000000000000000000000000000000000000000000 DUP2 MSTORE PUSH1 0x4 ADD PUSH1 0x40 MLOAD DUP1 SWAP2 SUB SWAP1 REVERT JUMPDEST DUP2 PUSH20 0xFFFFFFFFFFFFFFFFFFFFFFFFFFFFFFFFFFFFFFFF AND PUSH32 0x5B690EC4A06FE979403046EAEEA5B3CE38524683C3001F662C8B5A829632F7DF PUSH1 0x40 MLOAD PUSH1 0x40 MLOAD DUP1 SWAP2 SUB SWAP1 LOG2 POP POP POP POP POP JUMP JUMPDEST DUP3 DUP1 SLOAD DUP3 DUP3 SSTORE SWAP1 PUSH1 0x0 MSTORE PUSH1 0x20 PUSH1 0x0 KECCAK256 SWAP1 DUP2 ADD SWAP3 DUP3 ISZERO PUSH2 0xBEF JUMPI SWAP2 PUSH1 0x20 MUL DUP3 ADD JUMPDEST DUP3 DUP2 GT ISZERO PUSH2 0xBEE JUMPI DUP3 MLOAD DUP3 PUSH1 0x0 PUSH2 0x100 EXP DUP2 SLOAD DUP2 PUSH20 0xFFFFFFFFFFFFFFFFFFFFFFFFFFFFFFFFFFFFFFFF MUL NOT AND SWAP1 DUP4 PUSH20 0xFFFFFFFFFFFFFFFFFFFFFFFFFFFFFFFFFFFFFFFF AND MUL OR SWAP1 SSTORE POP SWAP2 PUSH1 0x20 ADD SWAP2 SWAP1 PUSH1 0x1 ADD SWAP1 PUSH2 0xB96 JUMP JUMPDEST JUMPDEST POP SWAP1 POP PUSH2 0xBFC SWAP2 SWAP1 PUSH2 0xC00 JUMP JUMPDEST POP SWAP1 JUMP JUMPDEST JUMPDEST DUP1 DUP3 GT ISZERO PUSH2 0xC19 JUMPI PUSH1 0x0 DUP2 PUSH1 0x0 SWAP1 SSTORE POP PUSH1 0x1 ADD PUSH2 0xC01 JUMP JUMPDEST POP SWAP1 JUMP JUMPDEST PUSH1 0x0 PUSH1 0x40 MLOAD SWAP1 POP SWAP1 JUMP JUMPDEST PUSH1 0x0 DUP1 REVERT JUMPDEST PUSH1 0x0 DUP1 REVERT JUMPDEST PUSH1 0x0 DUP2 SWAP1 POP SWAP2 SWAP1 POP JUMP JUMPDEST PUSH2 0xC44 DUP2 PUSH2 0xC31 JUMP JUMPDEST DUP2 EQ PUSH2 0xC4F JUMPI PUSH1 0x0 DUP1 REVERT JUMPDEST POP JUMP JUMPDEST PUSH1 0x0 DUP2 CALLDATALOAD SWAP1 POP PUSH2 0xC61 DUP2 PUSH2 0xC3B JUMP JUMPDEST SWAP3 SWAP2 POP POP JUMP JUMPDEST PUSH1 0x0 DUP1 REVERT JUMPDEST PUSH1 0x0 PUSH1 0x1F NOT PUSH1 0x1F DUP4 ADD AND SWAP1 POP SWAP2 SWAP1 POP JUMP JUMPDEST PUSH32 0x4E487B7100000000000000000000000000000000000000000000000000000000 PUSH1 0x0 MSTORE PUSH1 0x41 PUSH1 0x4 MSTORE PUSH1 0x24 PUSH1 0x0 REVERT JUMPDEST PUSH2 0xCB5 DUP3 PUSH2 0xC6C JUMP JUMPDEST DUP2 ADD DUP2 DUP2 LT PUSH8 0xFFFFFFFFFFFFFFFF DUP3 GT OR ISZERO PUSH2 0xCD4 JUMPI PUSH2 0xCD3 PUSH2 0xC7D JUMP JUMPDEST JUMPDEST DUP1 PUSH1 0x40 MSTORE POP POP POP JUMP JUMPDEST PUSH1 0x0 PUSH2 0xCE7 PUSH2 0xC1D JUMP JUMPDEST SWAP1 POP PUSH2 0xCF3 DUP3 DUP3 PUSH2 0xCAC JUMP JUMPDEST SWAP2 SWAP1 POP JUMP JUMPDEST PUSH1 0x0 PUSH8 0xFFFFFFFFFFFFFFFF DUP3 GT ISZERO PUSH2 0xD13 JUMPI PUSH2 0xD12 PUSH2 0xC7D JUMP JUMPDEST JUMPDEST PUSH1 0x20 DUP3 MUL SWAP1 POP PUSH1 0x20 DUP2 ADD SWAP1 POP SWAP2 SWAP1 POP JUMP JUMPDEST PUSH1 0x0 DUP1 REVERT JUMPDEST PUSH1 0x0 PUSH2 0xD3C PUSH2 0xD37 DUP5 PUSH2 0xCF8 JUMP JUMPDEST PUSH2 0xCDD JUMP JUMPDEST SWAP1 POP DUP1 DUP4 DUP3 MSTORE PUSH1 0x20 DUP3 ADD SWAP1 POP PUSH1 0x20 DUP5 MUL DUP4 ADD DUP6 DUP2 GT ISZERO PUSH2 0xD5F JUMPI PUSH2 0xD5E PUSH2 0xD24 JUMP JUMPDEST JUMPDEST DUP4 JUMPDEST DUP2 DUP2 LT ISZERO PUSH2 0xD88 JUMPI DUP1 PUSH2 0xD74 DUP9 DUP3 PUSH2 0xC52 JUMP JUMPDEST DUP5 MSTORE PUSH1 0x20 DUP5 ADD SWAP4 POP POP PUSH1 0x20 DUP2 ADD SWAP1 POP PUSH2 0xD61 JUMP JUMPDEST POP POP POP SWAP4 SWAP3 POP POP POP JUMP JUMPDEST PUSH1 0x0 DUP3 PUSH1 0x1F DUP4 ADD SLT PUSH2 0xDA7 JUMPI PUSH2 0xDA6 PUSH2 0xC67 JUMP JUMPDEST JUMPDEST DUP2 CALLDATALOAD PUSH2 0xDB7 DUP5 DUP3 PUSH1 0x20 DUP7 ADD PUSH2 0xD29 JUMP JUMPDEST SWAP2 POP POP SWAP3 SWAP2 POP POP JUMP JUMPDEST PUSH1 0x0 DUP1 PUSH1 0x40 DUP4 DUP6 SUB SLT ISZERO PUSH2 0xDD7 JUMPI PUSH2 0xDD6 PUSH2 0xC27 JUMP JUMPDEST JUMPDEST PUSH1 0x0 PUSH2 0xDE5 DUP6 DUP3 DUP7 ADD PUSH2 0xC52 JUMP JUMPDEST SWAP3 POP POP PUSH1 0x20 DUP4 ADD CALLDATALOAD PUSH8 0xFFFFFFFFFFFFFFFF DUP2 GT ISZERO PUSH2 0xE06 JUMPI PUSH2 0xE05 PUSH2 0xC2C JUMP JUMPDEST JUMPDEST PUSH2 0xE12 DUP6 DUP3 DUP7 ADD PUSH2 0xD92 JUMP JUMPDEST SWAP2 POP POP SWAP3 POP SWAP3 SWAP1 POP JUMP JUMPDEST PUSH1 0x0 DUP1 REVERT JUMPDEST PUSH1 0x0 DUP1 DUP4 PUSH1 0x1F DUP5 ADD SLT PUSH2 0xE37 JUMPI PUSH2 0xE36 PUSH2 0xC67 JUMP JUMPDEST JUMPDEST DUP3 CALLDATALOAD SWAP1 POP PUSH8 0xFFFFFFFFFFFFFFFF DUP2 GT ISZERO PUSH2 0xE54 JUMPI PUSH2 0xE53 PUSH2 0xE1C JUMP JUMPDEST JUMPDEST PUSH1 0x20 DUP4 ADD SWAP2 POP DUP4 PUSH1 0x1 DUP3 MUL DUP4 ADD GT ISZERO PUSH2 0xE70 JUMPI PUSH2 0xE6F PUSH2 0xD24 JUMP JUMPDEST JUMPDEST SWAP3 POP SWAP3 SWAP1 POP JUMP JUMPDEST PUSH1 0x0 DUP1 PUSH1 0x20 DUP4 DUP6 SUB SLT ISZERO PUSH2 0xE8E JUMPI PUSH2 0xE8D PUSH2 0xC27 JUMP JUMPDEST JUMPDEST PUSH1 0x0 DUP4 ADD CALLDATALOAD PUSH8 0xFFFFFFFFFFFFFFFF DUP2 GT ISZERO PUSH2 0xEAC JUMPI PUSH2 0xEAB PUSH2 0xC2C JUMP JUMPDEST JUMPDEST PUSH2 0xEB8 DUP6 DUP3 DUP7 ADD PUSH2 0xE21 JUMP JUMPDEST SWAP3 POP SWAP3 POP POP SWAP3 POP SWAP3 SWAP1 POP JUMP JUMPDEST PUSH1 0x0 PUSH1 0x20 DUP3 DUP5 SUB SLT ISZERO PUSH2 0xEDA JUMPI PUSH2 0xED9 PUSH2 0xC27 JUMP JUMPDEST JUMPDEST PUSH1 0x0 PUSH2 0xEE8 DUP5 DUP3 DUP6 ADD PUSH2 0xC52 JUMP JUMPDEST SWAP2 POP POP SWAP3 SWAP2 POP POP JUMP JUMPDEST PUSH1 0x0 PUSH20 0xFFFFFFFFFFFFFFFFFFFFFFFFFFFFFFFFFFFFFFFF DUP3 AND SWAP1 POP SWAP2 SWAP1 POP JUMP JUMPDEST PUSH1 0x0 PUSH2 0xF1C DUP3 PUSH2 0xEF1 JUMP JUMPDEST SWAP1 POP SWAP2 SWAP1 POP JUMP JUMPDEST PUSH2 0xF2C DUP2 PUSH2 0xF11 JUMP JUMPDEST DUP3 MSTORE POP POP JUMP JUMPDEST PUSH1 0x0 PUSH1 0x20 DUP3 ADD SWAP1 POP PUSH2 0xF47 PUSH1 0x0 DUP4 ADD DUP5 PUSH2 0xF23 JUMP JUMPDEST SWAP3 SWAP2 POP POP JUMP JUMPDEST PUSH2 0xF56 DUP2 PUSH2 0xC31 JUMP JUMPDEST DUP3 MSTORE POP POP JUMP JUMPDEST PUSH1 0x0 PUSH1 0x20 DUP3 ADD SWAP1 POP PUSH2 0xF71 PUSH1 0x0 DUP4 ADD DUP5 PUSH2 0xF4D JUMP JUMPDEST SWAP3 SWAP2 POP POP JUMP JUMPDEST PUSH32 0x4E487B7100000000000000000000000000000000000000000000000000000000 PUSH1 0x0 MSTORE PUSH1 0x21 PUSH1 0x4 MSTORE PUSH1 0x24 PUSH1 0x0 REVERT JUMPDEST PUSH1 0x2 DUP2 LT PUSH2 0xFB7 JUMPI PUSH2 0xFB6 PUSH2 0xF77 JUMP JUMPDEST JUMPDEST POP JUMP JUMPDEST PUSH1 0x0 DUP2 SWAP1 POP PUSH2 0xFC8 DUP3 PUSH2 0xFA6 JUMP JUMPDEST SWAP2 SWAP1 POP JUMP JUMPDEST PUSH1 0x0 PUSH2 0xFD8 DUP3 PUSH2 0xFBA JUMP JUMPDEST SWAP1 POP SWAP2 SWAP1 POP JUMP JUMPDEST PUSH2 0xFE8 DUP2 PUSH2 0xFCD JUMP JUMPDEST DUP3 MSTORE POP POP JUMP JUMPDEST PUSH1 0x0 PUSH1 0x20 DUP3 ADD SWAP1 POP PUSH2 0x1003 PUSH1 0x0 DUP4 ADD DUP5 PUSH2 0xFDF JUMP JUMPDEST SWAP3 SWAP2 POP POP JUMP JUMPDEST PUSH1 0x0 DUP1 REVERT JUMPDEST PUSH1 0x0 PUSH8 0xFFFFFFFFFFFFFFFF DUP3 GT ISZERO PUSH2 0x1029 JUMPI PUSH2 0x1028 PUSH2 0xC7D JUMP JUMPDEST JUMPDEST PUSH2 0x1032 DUP3 PUSH2 0xC6C JUMP JUMPDEST SWAP1 POP PUSH1 0x20 DUP2 ADD SWAP1 POP SWAP2 SWAP1 POP JUMP JUMPDEST DUP3 DUP2 DUP4 CALLDATACOPY PUSH1 0x0 DUP4 DUP4 ADD MSTORE POP POP POP JUMP JUMPDEST PUSH1 0x0 PUSH2 0x1061 PUSH2 0x105C DUP5 PUSH2 0x100E JUMP JUMPDEST PUSH2 0xCDD JUMP JUMPDEST SWAP1 POP DUP3 DUP2 MSTORE PUSH1 0x20 DUP2 ADD DUP5 DUP5 DUP5 ADD GT ISZERO PUSH2 0x107D JUMPI PUSH2 0x107C PUSH2 0x1009 JUMP JUMPDEST JUMPDEST PUSH2 0x1088 DUP5 DUP3 DUP6 PUSH2 0x103F JUMP JUMPDEST POP SWAP4 SWAP3 POP POP POP JUMP JUMPDEST PUSH1 0x0 DUP3 PUSH1 0x1F DUP4 ADD SLT PUSH2 0x10A5 JUMPI PUSH2 0x10A4 PUSH2 0xC67 JUMP JUMPDEST JUMPDEST DUP2 CALLDATALOAD PUSH2 0x10B5 DUP5 DUP3 PUSH1 0x20 DUP7 ADD PUSH2 0x104E JUMP JUMPDEST SWAP2 POP POP SWAP3 SWAP2 POP POP JUMP JUMPDEST PUSH1 0x0 PUSH1 0x20 DUP3 DUP5 SUB SLT ISZERO PUSH2 0x10D4 JUMPI PUSH2 0x10D3 PUSH2 0xC27 JUMP JUMPDEST JUMPDEST PUSH1 0x0 DUP3 ADD CALLDATALOAD PUSH8 0xFFFFFFFFFFFFFFFF DUP2 GT ISZERO PUSH2 0x10F2 JUMPI PUSH2 0x10F1 PUSH2 0xC2C JUMP JUMPDEST JUMPDEST PUSH2 0x10FE DUP5 DUP3 DUP6 ADD PUSH2 0x1090 JUMP JUMPDEST SWAP2 POP POP SWAP3 SWAP2 POP POP JUMP JUMPDEST PUSH1 0x0 DUP2 ISZERO ISZERO SWAP1 POP SWAP2 SWAP1 POP JUMP JUMPDEST PUSH2 0x111C DUP2 PUSH2 0x1107 JUMP JUMPDEST DUP3 MSTORE POP POP JUMP JUMPDEST PUSH1 0x0 DUP2 MLOAD SWAP1 POP SWAP2 SWAP1 POP JUMP JUMPDEST PUSH1 0x0 DUP3 DUP3 MSTORE PUSH1 0x20 DUP3 ADD SWAP1 POP SWAP3 SWAP2 POP POP JUMP JUMPDEST PUSH1 0x0 JUMPDEST DUP4 DUP2 LT ISZERO PUSH2 0x115C JUMPI DUP1 DUP3 ADD MLOAD DUP2 DUP5 ADD MSTORE PUSH1 0x20 DUP2 ADD SWAP1 POP PUSH2 0x1141 JUMP JUMPDEST DUP4 DUP2 GT ISZERO PUSH2 0x116B JUMPI PUSH1 0x0 DUP5 DUP5 ADD MSTORE JUMPDEST POP POP POP POP JUMP JUMPDEST PUSH1 0x0 PUSH2 0x117C DUP3 PUSH2 0x1122 JUMP JUMPDEST PUSH2 0x1186 DUP2 DUP6 PUSH2 0x112D JUMP JUMPDEST SWAP4 POP PUSH2 0x1196 DUP2 DUP6 PUSH1 0x20 DUP7 ADD PUSH2 0x113E JUMP JUMPDEST PUSH2 0x119F DUP2 PUSH2 0xC6C JUMP JUMPDEST DUP5 ADD SWAP2 POP POP SWAP3 SWAP2 POP POP JUMP JUMPDEST PUSH1 0x0 PUSH1 0x40 DUP3 ADD SWAP1 POP PUSH2 0x11BF PUSH1 0x0 DUP4 ADD DUP6 PUSH2 0x1113 JUMP JUMPDEST DUP2 DUP2 SUB PUSH1 0x20 DUP4 ADD MSTORE PUSH2 0x11D1 DUP2 DUP5 PUSH2 0x1171 JUMP JUMPDEST SWAP1 POP SWAP4 SWAP3 POP POP POP JUMP JUMPDEST PUSH1 0x0 PUSH1 0x40 DUP3 ADD SWAP1 POP PUSH2 0x11EF PUSH1 0x0 DUP4 ADD DUP6 PUSH2 0xF23 JUMP JUMPDEST PUSH2 0x11FC PUSH1 0x20 DUP4 ADD DUP5 PUSH2 0xF23 JUMP JUMPDEST SWAP4 SWAP3 POP POP POP JUMP JUMPDEST PUSH1 0x0 PUSH1 0x60 DUP3 ADD SWAP1 POP PUSH2 0x1218 PUSH1 0x0 DUP4 ADD DUP7 PUSH2 0xF4D JUMP JUMPDEST PUSH2 0x1225 PUSH1 0x20 DUP4 ADD DUP6 PUSH2 0xF4D JUMP JUMPDEST PUSH2 0x1232 PUSH1 0x40 DUP4 ADD DUP5 PUSH2 0xF4D JUMP JUMPDEST SWAP5 SWAP4 POP POP POP POP JUMP JUMPDEST PUSH1 0x0 DUP2 SWAP1 POP SWAP2 SWAP1 POP JUMP JUMPDEST PUSH2 0x124D DUP2 PUSH2 0x123A JUMP JUMPDEST DUP3 MSTORE POP POP JUMP JUMPDEST PUSH1 0x0 PUSH8 0xFFFFFFFFFFFFFFFF DUP3 AND SWAP1 POP SWAP2 SWAP1 POP JUMP JUMPDEST PUSH2 0x1270 DUP2 PUSH2 0x1253 JUMP JUMPDEST DUP3 MSTORE POP POP JUMP JUMPDEST PUSH1 0x0 PUSH2 0xFFFF DUP3 AND SWAP1 POP SWAP2 SWAP1 POP JUMP JUMPDEST PUSH2 0x128D DUP2 PUSH2 0x1276 JUMP JUMPDEST DUP3 MSTORE POP POP JUMP JUMPDEST PUSH1 0x0 PUSH4 0xFFFFFFFF DUP3 AND SWAP1 POP SWAP2 SWAP1 POP JUMP JUMPDEST PUSH2 0x12AC DUP2 PUSH2 0x1293 JUMP JUMPDEST DUP3 MSTORE POP POP JUMP JUMPDEST PUSH1 0x0 DUP2 SWAP1 POP SWAP2 SWAP1 POP JUMP JUMPDEST PUSH1 0x0 PUSH2 0x12D7 PUSH2 0x12D2 PUSH2 0x12CD DUP5 PUSH2 0x1276 JUMP JUMPDEST PUSH2 0x12B2 JUMP JUMPDEST PUSH2 0x1293 JUMP JUMPDEST SWAP1 POP SWAP2 SWAP1 POP JUMP JUMPDEST PUSH2 0x12E7 DUP2 PUSH2 0x12BC JUMP JUMPDEST DUP3 MSTORE POP POP JUMP JUMPDEST PUSH1 0x0 PUSH1 0xA0 DUP3 ADD SWAP1 POP PUSH2 0x1302 PUSH1 0x0 DUP4 ADD DUP9 PUSH2 0x1244 JUMP JUMPDEST PUSH2 0x130F PUSH1 0x20 DUP4 ADD DUP8 PUSH2 0x1267 JUMP JUMPDEST PUSH2 0x131C PUSH1 0x40 DUP4 ADD DUP7 PUSH2 0x1284 JUMP JUMPDEST PUSH2 0x1329 PUSH1 0x60 DUP4 ADD DUP6 PUSH2 0x12A3 JUMP JUMPDEST PUSH2 0x1336 PUSH1 0x80 DUP4 ADD DUP5 PUSH2 0x12DE JUMP JUMPDEST SWAP7 SWAP6 POP POP POP POP POP POP JUMP JUMPDEST PUSH1 0x0 DUP2 MLOAD SWAP1 POP PUSH2 0x134F DUP2 PUSH2 0xC3B JUMP JUMPDEST SWAP3 SWAP2 POP POP JUMP JUMPDEST PUSH1 0x0 PUSH1 0x20 DUP3 DUP5 SUB SLT ISZERO PUSH2 0x136B JUMPI PUSH2 0x136A PUSH2 0xC27 JUMP JUMPDEST JUMPDEST PUSH1 0x0 PUSH2 0x1379 DUP5 DUP3 DUP6 ADD PUSH2 0x1340 JUMP JUMPDEST SWAP2 POP POP SWAP3 SWAP2 POP POP JUMP JUMPDEST PUSH32 0x4E487B7100000000000000000000000000000000000000000000000000000000 PUSH1 0x0 MSTORE PUSH1 0x32 PUSH1 0x4 MSTORE PUSH1 0x24 PUSH1 0x0 REVERT JUMPDEST PUSH32 0x4E487B7100000000000000000000000000000000000000000000000000000000 PUSH1 0x0 MSTORE PUSH1 0x11 PUSH1 0x4 MSTORE PUSH1 0x24 PUSH1 0x0 REVERT JUMPDEST PUSH1 0x0 PUSH2 0x13EB DUP3 PUSH2 0xC31 JUMP JUMPDEST SWAP2 POP PUSH2 0x13F6 DUP4 PUSH2 0xC31 JUMP JUMPDEST SWAP3 POP DUP3 DUP3 LT ISZERO PUSH2 0x1409 JUMPI PUSH2 0x1408 PUSH2 0x13B1 JUMP JUMPDEST JUMPDEST DUP3 DUP3 SUB SWAP1 POP SWAP3 SWAP2 POP POP JUMP JUMPDEST PUSH32 0x4E487B7100000000000000000000000000000000000000000000000000000000 PUSH1 0x0 MSTORE PUSH1 0x12 PUSH1 0x4 MSTORE PUSH1 0x24 PUSH1 0x0 REVERT JUMPDEST PUSH1 0x0 PUSH2 0x144E DUP3 PUSH2 0xC31 JUMP JUMPDEST SWAP2 POP PUSH2 0x1459 DUP4 PUSH2 0xC31 JUMP JUMPDEST SWAP3 POP DUP3 PUSH2 0x1469 JUMPI PUSH2 0x1468 PUSH2 0x1414 JUMP JUMPDEST JUMPDEST DUP3 DUP3 MOD SWAP1 POP SWAP3 SWAP2 POP POP JUMP JUMPDEST PUSH1 0x0 DUP2 SWAP1 POP SWAP3 SWAP2 POP POP JUMP JUMPDEST POP JUMP JUMPDEST PUSH1 0x0 PUSH2 0x148F PUSH1 0x0 DUP4 PUSH2 0x1474 JUMP JUMPDEST SWAP2 POP PUSH2 0x149A DUP3 PUSH2 0x147F JUMP JUMPDEST PUSH1 0x0 DUP3 ADD SWAP1 POP SWAP2 SWAP1 POP JUMP JUMPDEST PUSH1 0x0 PUSH2 0x14B0 DUP3 PUSH2 0x1482 JUMP JUMPDEST SWAP2 POP DUP2 SWAP1 POP SWAP2 SWAP1 POP JUMP INVALID LOG2 PUSH5 0x6970667358 0x22 SLT KECCAK256 GASLIMIT CALL GASLIMIT DUP3 DUP7 SMOD 0xA7 0x2F 0xCC PUSH22 0xB36776B03C49ED62AABC75A9DE42E1100959ED818AB3 PUSH5 0x736F6C6343 STOP ADDMOD MULMOD STOP CALLER "
        },
        "gasEstimates": {
          "creation": {
            "codeDepositCost": "1072000",
            "executionCost": "infinite",
            "totalCost": "infinite"
          },
          "external": {
            "checkUpkeep(bytes)": "infinite",
            "enterLottery()": "infinite",
            "getConfirmations()": "387",
            "getEntryFee()": "infinite",
            "getInterval()": "infinite",
            "getLastTimeStamp()": "2459",
            "getLotteryState()": "2685",
            "getNumWords()": "388",
            "getNumberOfPlayers()": "2533",
            "getPlayers(uint256)": "5035",
            "getRecentWinner()": "2545",
            "performUpkeep(bytes)": "infinite",
            "rawFulfillRandomWords(uint256,uint256[])": "infinite",
            "s_recentWinner()": "2537"
          },
          "internal": {
            "fulfillRandomWords(uint256,uint256[] memory)": "infinite"
          }
        },
        "methodIdentifiers": {
          "checkUpkeep(bytes)": "6e04ff0d",
          "enterLottery()": "c1af5785",
          "getConfirmations()": "c361ce83",
          "getEntryFee()": "e586a4f0",
          "getInterval()": "91ad27b4",
          "getLastTimeStamp()": "c1c244e8",
          "getLotteryState()": "6b68c03c",
          "getNumWords()": "53a2c19a",
          "getNumberOfPlayers()": "fd6673f5",
          "getPlayers(uint256)": "460e2049",
          "getRecentWinner()": "473f1ddc",
          "performUpkeep(bytes)": "4585e33b",
          "rawFulfillRandomWords(uint256,uint256[])": "1fe543e3",
          "s_recentWinner()": "8638b0c6"
        }
      },
      "storageLayout": {
        "storage": [
          {
            "astId": 236,
            "contract": "contracts/Lottery.sol:Lottery",
            "label": "s_players",
            "offset": 0,
            "slot": "0",
            "type": "t_array(t_address_payable)dyn_storage"
          },
          {
            "astId": 253,
            "contract": "contracts/Lottery.sol:Lottery",
            "label": "s_recentWinner",
            "offset": 0,
            "slot": "1",
            "type": "t_address"
          },
          {
            "astId": 256,
            "contract": "contracts/Lottery.sol:Lottery",
            "label": "s_lotteryState",
            "offset": 20,
            "slot": "1",
            "type": "t_enum(LotteryState)231"
          },
          {
            "astId": 258,
            "contract": "contracts/Lottery.sol:Lottery",
            "label": "s_lastTimeStamp",
            "offset": 0,
            "slot": "2",
            "type": "t_uint256"
          }
        ],
        "types": {
          "t_address": {
            "encoding": "inplace",
            "label": "address",
            "numberOfBytes": "20"
          },
          "t_address_payable": {
            "encoding": "inplace",
            "label": "address payable",
            "numberOfBytes": "20"
          },
          "t_array(t_address_payable)dyn_storage": {
            "base": "t_address_payable",
            "encoding": "dynamic_array",
            "label": "address payable[]",
            "numberOfBytes": "32"
          },
          "t_enum(LotteryState)231": {
            "encoding": "inplace",
            "label": "enum Lottery.LotteryState",
            "numberOfBytes": "1"
          },
          "t_uint256": {
            "encoding": "inplace",
            "label": "uint256",
            "numberOfBytes": "32"
          }
        }
      },
      "userdoc": {
        "kind": "user",
        "methods": {},
        "notice": "This contract is for creating a sample Lottery contract",
        "version": 1
      }
    }
  }
}