{
  "_format": "hh-sol-artifact-1",
  "contractName": "Lottery",
  "sourceName": "contracts/Lottery.sol",
  "abi": [
    {
      "inputs": [
        {
          "internalType": "address",
          "name": "vrfCoordinatorV2",
          "type": "address"
        },
        {
          "internalType": "uint256",
          "name": "entryFee",
          "type": "uint256"
        },
        {
          "internalType": "bytes32",
          "name": "gasLane",
          "type": "bytes32"
        },
        {
          "internalType": "uint64",
          "name": "subscriptionId",
          "type": "uint64"
        },
        {
          "internalType": "uint32",
          "name": "callbackGasLimit",
          "type": "uint32"
        },
        {
          "internalType": "uint256",
          "name": "interval",
          "type": "uint256"
        }
      ],
      "stateMutability": "nonpayable",
      "type": "constructor"
    },
    {
      "inputs": [],
      "name": "Lottery__NotEnoughEthToEnter",
      "type": "error"
    },
    {
      "inputs": [],
      "name": "Lottery__NotOpen",
      "type": "error"
    },
    {
      "inputs": [],
      "name": "Lottery__TransferFailed",
      "type": "error"
    },
    {
      "inputs": [
        {
          "internalType": "uint256",
          "name": "currentBalance",
          "type": "uint256"
        },
        {
          "internalType": "uint256",
          "name": "numPlayers",
          "type": "uint256"
        },
        {
          "internalType": "uint256",
          "name": "lotteryState",
          "type": "uint256"
        }
      ],
      "name": "Lottery__upKeepNotNeeded",
      "type": "error"
    },
    {
      "inputs": [
        {
          "internalType": "address",
          "name": "have",
          "type": "address"
        },
        {
          "internalType": "address",
          "name": "want",
          "type": "address"
        }
      ],
      "name": "OnlyCoordinatorCanFulfill",
      "type": "error"
    },
    {
      "anonymous": false,
      "inputs": [
        {
          "indexed": true,
          "internalType": "address",
          "name": "player",
          "type": "address"
        }
      ],
      "name": "LotteryEnter",
      "type": "event"
    },
    {
      "anonymous": false,
      "inputs": [
        {
          "indexed": true,
          "internalType": "uint256",
          "name": "requestId",
          "type": "uint256"
        }
      ],
      "name": "RequestLotteryWinner",
      "type": "event"
    },
    {
      "anonymous": false,
      "inputs": [
        {
          "indexed": true,
          "internalType": "address",
          "name": "winner",
          "type": "address"
        }
      ],
      "name": "WinnerPicked",
      "type": "event"
    },
    {
      "inputs": [
        {
          "internalType": "bytes",
          "name": "",
          "type": "bytes"
        }
      ],
      "name": "checkUpkeep",
      "outputs": [
        {
          "internalType": "bool",
          "name": "upKeepNeeded",
          "type": "bool"
        },
        {
          "internalType": "bytes",
          "name": "",
          "type": "bytes"
        }
      ],
      "stateMutability": "nonpayable",
      "type": "function"
    },
    {
      "inputs": [],
      "name": "enterLottery",
      "outputs": [],
      "stateMutability": "payable",
      "type": "function"
    },
    {
      "inputs": [],
      "name": "getConfirmations",
      "outputs": [
        {
          "internalType": "uint256",
          "name": "",
          "type": "uint256"
        }
      ],
      "stateMutability": "pure",
      "type": "function"
    },
    {
      "inputs": [],
      "name": "getEntryFee",
      "outputs": [
        {
          "internalType": "uint256",
          "name": "",
          "type": "uint256"
        }
      ],
      "stateMutability": "view",
      "type": "function"
    },
    {
      "inputs": [],
      "name": "getInterval",
      "outputs": [
        {
          "internalType": "uint256",
          "name": "",
          "type": "uint256"
        }
      ],
      "stateMutability": "view",
      "type": "function"
    },
    {
      "inputs": [],
      "name": "getLastTimeStamp",
      "outputs": [
        {
          "internalType": "uint256",
          "name": "",
          "type": "uint256"
        }
      ],
      "stateMutability": "view",
      "type": "function"
    },
    {
      "inputs": [],
      "name": "getLotteryState",
      "outputs": [
        {
          "internalType": "enum Lottery.LotteryState",
          "name": "",
          "type": "uint8"
        }
      ],
      "stateMutability": "view",
      "type": "function"
    },
    {
      "inputs": [],
      "name": "getNumWords",
      "outputs": [
        {
          "internalType": "uint256",
          "name": "",
          "type": "uint256"
        }
      ],
      "stateMutability": "pure",
      "type": "function"
    },
    {
      "inputs": [],
      "name": "getNumberOfPlayers",
      "outputs": [
        {
          "internalType": "uint256",
          "name": "",
          "type": "uint256"
        }
      ],
      "stateMutability": "view",
      "type": "function"
    },
    {
      "inputs": [
        {
          "internalType": "uint256",
          "name": "index",
          "type": "uint256"
        }
      ],
      "name": "getPlayers",
      "outputs": [
        {
          "internalType": "address",
          "name": "",
          "type": "address"
        }
      ],
      "stateMutability": "view",
      "type": "function"
    },
    {
      "inputs": [],
      "name": "getRecentWinner",
      "outputs": [
        {
          "internalType": "address",
          "name": "",
          "type": "address"
        }
      ],
      "stateMutability": "view",
      "type": "function"
    },
    {
      "inputs": [
        {
          "internalType": "bytes",
          "name": "",
          "type": "bytes"
        }
      ],
      "name": "performUpkeep",
      "outputs": [],
      "stateMutability": "nonpayable",
      "type": "function"
    },
    {
      "inputs": [
        {
          "internalType": "uint256",
          "name": "requestId",
          "type": "uint256"
        },
        {
          "internalType": "uint256[]",
          "name": "randomWords",
          "type": "uint256[]"
        }
      ],
      "name": "rawFulfillRandomWords",
      "outputs": [],
      "stateMutability": "nonpayable",
      "type": "function"
    },
    {
      "inputs": [],
      "name": "s_recentWinner",
      "outputs": [
        {
          "internalType": "address",
          "name": "",
          "type": "address"
        }
      ],
      "stateMutability": "view",
      "type": "function"
    }
  ],
  "bytecode": "0x6101606040523480156200001257600080fd5b50604051620018bf380380620018bf833981810160405281019062000038919062000294565b858073ffffffffffffffffffffffffffffffffffffffff1660808173ffffffffffffffffffffffffffffffffffffffff1681525050508460a081815250508573ffffffffffffffffffffffffffffffffffffffff1660c08173ffffffffffffffffffffffffffffffffffffffff16815250508360e081815250508267ffffffffffffffff166101008167ffffffffffffffff16815250508163ffffffff166101208163ffffffff16815250506000600160146101000a81548160ff021916908360018111156200010d576200010c62000330565b5b0217905550426002819055508061014081815250505050505050506200035f565b600080fd5b600073ffffffffffffffffffffffffffffffffffffffff82169050919050565b6000620001608262000133565b9050919050565b620001728162000153565b81146200017e57600080fd5b50565b600081519050620001928162000167565b92915050565b6000819050919050565b620001ad8162000198565b8114620001b957600080fd5b50565b600081519050620001cd81620001a2565b92915050565b6000819050919050565b620001e881620001d3565b8114620001f457600080fd5b50565b6000815190506200020881620001dd565b92915050565b600067ffffffffffffffff82169050919050565b6200022d816200020e565b81146200023957600080fd5b50565b6000815190506200024d8162000222565b92915050565b600063ffffffff82169050919050565b6200026e8162000253565b81146200027a57600080fd5b50565b6000815190506200028e8162000263565b92915050565b60008060008060008060c08789031215620002b457620002b36200012e565b5b6000620002c489828a0162000181565b9650506020620002d789828a01620001bc565b9550506040620002ea89828a01620001f7565b9450506060620002fd89828a016200023c565b93505060806200031089828a016200027d565b92505060a06200032389828a01620001bc565b9150509295509295509295565b7f4e487b7100000000000000000000000000000000000000000000000000000000600052602160045260246000fd5b60805160a05160c05160e0516101005161012051610140516114f0620003cf600039600081816106d301526107670152600061053301526000610510015260006104ef015260006104b301526000818161078d015261091501526000818161033e015261039201526114f06000f3fe6080604052600436106100dd5760003560e01c80638638b0c61161007f578063c1c244e811610059578063c1c244e814610290578063c361ce83146102bb578063e586a4f0146102e6578063fd6673f514610311576100dd565b80638638b0c61461023057806391ad27b41461025b578063c1af578514610286576100dd565b8063473f1ddc116100bb578063473f1ddc1461017157806353a2c19a1461019c5780636b68c03c146101c75780636e04ff0d146101f2576100dd565b80631fe543e3146100e25780634585e33b1461010b578063460e204914610134575b600080fd5b3480156100ee57600080fd5b5061010960048036038101906101049190610dc0565b61033c565b005b34801561011757600080fd5b50610132600480360381019061012d9190610e77565b6103fc565b005b34801561014057600080fd5b5061015b60048036038101906101569190610ec4565b6105fb565b6040516101689190610f32565b60405180910390f35b34801561017d57600080fd5b50610186610642565b6040516101939190610f32565b60405180910390f35b3480156101a857600080fd5b506101b161066c565b6040516101be9190610f5c565b60405180910390f35b3480156101d357600080fd5b506101dc610679565b6040516101e99190610fee565b60405180910390f35b3480156101fe57600080fd5b50610219600480360381019061021491906110be565b610690565b6040516102279291906111aa565b60405180910390f35b34801561023c57600080fd5b5061024561073d565b6040516102529190610f32565b60405180910390f35b34801561026757600080fd5b50610270610763565b60405161027d9190610f5c565b60405180910390f35b61028e61078b565b005b34801561029c57600080fd5b506102a56108fa565b6040516102b29190610f5c565b60405180910390f35b3480156102c757600080fd5b506102d0610904565b6040516102dd9190610f5c565b60405180910390f35b3480156102f257600080fd5b506102fb610911565b6040516103089190610f5c565b60405180910390f35b34801561031d57600080fd5b50610326610939565b6040516103339190610f5c565b60405180910390f35b7f000000000000000000000000000000000000000000000000000000000000000073ffffffffffffffffffffffffffffffffffffffff163373ffffffffffffffffffffffffffffffffffffffff16146103ee57337f00000000000000000000000000000000000000000000000000000000000000006040517f1cf993f40000000000000000000000000000000000000000000000000000000081526004016103e59291906111da565b60405180910390fd5b6103f88282610945565b5050565b600061041660405180602001604052806000815250610690565b509050806104855747600080549050600160149054906101000a900460ff16600181111561044757610446610f77565b5b6040517fca1e13d000000000000000000000000000000000000000000000000000000000815260040161047c93929190611203565b60405180910390fd5b60018060146101000a81548160ff021916908360018111156104aa576104a9610f77565b5b021790555060007f000000000000000000000000000000000000000000000000000000000000000073ffffffffffffffffffffffffffffffffffffffff16635d3b1d307f00000000000000000000000000000000000000000000000000000000000000007f000000000000000000000000000000000000000000000000000000000000000060037f000000000000000000000000000000000000000000000000000000000000000060016040518663ffffffff1660e01b81526004016105749594939291906112ed565b602060405180830381600087803b15801561058e57600080fd5b505af11580156105a2573d6000803e3d6000fd5b505050506040513d601f19601f820116820180604052508101906105c69190611355565b9050807feddaba8a57dcfd3a637ac76edea7af81443028e0bd6e6cb23bd210a4a85ba85660405160405180910390a250505050565b60008082815481106106105761060f611382565b5b9060005260206000200160009054906101000a900473ffffffffffffffffffffffffffffffffffffffff169050919050565b6000600160009054906101000a900473ffffffffffffffffffffffffffffffffffffffff16905090565b6000600161ffff16905090565b6000600160149054906101000a900460ff16905090565b600060606000600160149054906101000a900460ff1660018111156106b8576106b7610f77565b5b600060018111156106cc576106cb610f77565b5b14905060007f00000000000000000000000000000000000000000000000000000000000000006002544261070091906113e0565b119050600080600080549050119050600080471190508380156107205750825b80156107295750805b80156107325750805b955050505050915091565b600160009054906101000a900473ffffffffffffffffffffffffffffffffffffffff1681565b60007f0000000000000000000000000000000000000000000000000000000000000000905090565b7f00000000000000000000000000000000000000000000000000000000000000003410156107e5576040517f67af44a600000000000000000000000000000000000000000000000000000000815260040160405180910390fd5b600060018111156107f9576107f8610f77565b5b600160149054906101000a900460ff16600181111561081b5761081a610f77565b5b14610852576040517fe76be6fc00000000000000000000000000000000000000000000000000000000815260040160405180910390fd5b6000339080600181540180825580915050600190039060005260206000200160009091909190916101000a81548173ffffffffffffffffffffffffffffffffffffffff021916908373ffffffffffffffffffffffffffffffffffffffff1602179055503373ffffffffffffffffffffffffffffffffffffffff167f1d64fb5ba9f2548c5b98468d58f25b87b9e866afee0122e92d9fe722bf85076c60405160405180910390a2565b6000600254905090565b6000600361ffff16905090565b60007f0000000000000000000000000000000000000000000000000000000000000000905090565b60008080549050905090565b60008080549050826000815181106109605761095f611382565b5b60200260200101516109729190611443565b9050600080828154811061098957610988611382565b5b9060005260206000200160009054906101000a900473ffffffffffffffffffffffffffffffffffffffff16905080600160006101000a81548173ffffffffffffffffffffffffffffffffffffffff021916908373ffffffffffffffffffffffffffffffffffffffff1602179055506000600160146101000a81548160ff02191690836001811115610a1d57610a1c610f77565b5b0217905550600067ffffffffffffffff811115610a3d57610a3c610c7d565b5b604051908082528060200260200182016040528015610a6b5781602001602082028036833780820191505090505b5060009080519060200190610a81929190610b76565b504260028190555060008173ffffffffffffffffffffffffffffffffffffffff1647604051610aaf906114a5565b60006040518083038185875af1925050503d8060008114610aec576040519150601f19603f3d011682016040523d82523d6000602084013e610af1565b606091505b5050905080610b2c576040517f1c94012000000000000000000000000000000000000000000000000000000000815260040160405180910390fd5b8173ffffffffffffffffffffffffffffffffffffffff167f5b690ec4a06fe979403046eaeea5b3ce38524683c3001f662c8b5a829632f7df60405160405180910390a25050505050565b828054828255906000526020600020908101928215610bef579160200282015b82811115610bee5782518260006101000a81548173ffffffffffffffffffffffffffffffffffffffff021916908373ffffffffffffffffffffffffffffffffffffffff16021790555091602001919060010190610b96565b5b509050610bfc9190610c00565b5090565b5b80821115610c19576000816000905550600101610c01565b5090565b6000604051905090565b600080fd5b600080fd5b6000819050919050565b610c4481610c31565b8114610c4f57600080fd5b50565b600081359050610c6181610c3b565b92915050565b600080fd5b6000601f19601f8301169050919050565b7f4e487b7100000000000000000000000000000000000000000000000000000000600052604160045260246000fd5b610cb582610c6c565b810181811067ffffffffffffffff82111715610cd457610cd3610c7d565b5b80604052505050565b6000610ce7610c1d565b9050610cf38282610cac565b919050565b600067ffffffffffffffff821115610d1357610d12610c7d565b5b602082029050602081019050919050565b600080fd5b6000610d3c610d3784610cf8565b610cdd565b90508083825260208201905060208402830185811115610d5f57610d5e610d24565b5b835b81811015610d885780610d748882610c52565b845260208401935050602081019050610d61565b5050509392505050565b600082601f830112610da757610da6610c67565b5b8135610db7848260208601610d29565b91505092915050565b60008060408385031215610dd757610dd6610c27565b5b6000610de585828601610c52565b925050602083013567ffffffffffffffff811115610e0657610e05610c2c565b5b610e1285828601610d92565b9150509250929050565b600080fd5b60008083601f840112610e3757610e36610c67565b5b8235905067ffffffffffffffff811115610e5457610e53610e1c565b5b602083019150836001820283011115610e7057610e6f610d24565b5b9250929050565b60008060208385031215610e8e57610e8d610c27565b5b600083013567ffffffffffffffff811115610eac57610eab610c2c565b5b610eb885828601610e21565b92509250509250929050565b600060208284031215610eda57610ed9610c27565b5b6000610ee884828501610c52565b91505092915050565b600073ffffffffffffffffffffffffffffffffffffffff82169050919050565b6000610f1c82610ef1565b9050919050565b610f2c81610f11565b82525050565b6000602082019050610f476000830184610f23565b92915050565b610f5681610c31565b82525050565b6000602082019050610f716000830184610f4d565b92915050565b7f4e487b7100000000000000000000000000000000000000000000000000000000600052602160045260246000fd5b60028110610fb757610fb6610f77565b5b50565b6000819050610fc882610fa6565b919050565b6000610fd882610fba565b9050919050565b610fe881610fcd565b82525050565b60006020820190506110036000830184610fdf565b92915050565b600080fd5b600067ffffffffffffffff82111561102957611028610c7d565b5b61103282610c6c565b9050602081019050919050565b82818337600083830152505050565b600061106161105c8461100e565b610cdd565b90508281526020810184848401111561107d5761107c611009565b5b61108884828561103f565b509392505050565b600082601f8301126110a5576110a4610c67565b5b81356110b584826020860161104e565b91505092915050565b6000602082840312156110d4576110d3610c27565b5b600082013567ffffffffffffffff8111156110f2576110f1610c2c565b5b6110fe84828501611090565b91505092915050565b60008115159050919050565b61111c81611107565b82525050565b600081519050919050565b600082825260208201905092915050565b60005b8381101561115c578082015181840152602081019050611141565b8381111561116b576000848401525b50505050565b600061117c82611122565b611186818561112d565b935061119681856020860161113e565b61119f81610c6c565b840191505092915050565b60006040820190506111bf6000830185611113565b81810360208301526111d18184611171565b90509392505050565b60006040820190506111ef6000830185610f23565b6111fc6020830184610f23565b9392505050565b60006060820190506112186000830186610f4d565b6112256020830185610f4d565b6112326040830184610f4d565b949350505050565b6000819050919050565b61124d8161123a565b82525050565b600067ffffffffffffffff82169050919050565b61127081611253565b82525050565b600061ffff82169050919050565b61128d81611276565b82525050565b600063ffffffff82169050919050565b6112ac81611293565b82525050565b6000819050919050565b60006112d76112d26112cd84611276565b6112b2565b611293565b9050919050565b6112e7816112bc565b82525050565b600060a0820190506113026000830188611244565b61130f6020830187611267565b61131c6040830186611284565b61132960608301856112a3565b61133660808301846112de565b9695505050505050565b60008151905061134f81610c3b565b92915050565b60006020828403121561136b5761136a610c27565b5b600061137984828501611340565b91505092915050565b7f4e487b7100000000000000000000000000000000000000000000000000000000600052603260045260246000fd5b7f4e487b7100000000000000000000000000000000000000000000000000000000600052601160045260246000fd5b60006113eb82610c31565b91506113f683610c31565b925082821015611409576114086113b1565b5b828203905092915050565b7f4e487b7100000000000000000000000000000000000000000000000000000000600052601260045260246000fd5b600061144e82610c31565b915061145983610c31565b92508261146957611468611414565b5b828206905092915050565b600081905092915050565b50565b600061148f600083611474565b915061149a8261147f565b600082019050919050565b60006114b082611482565b915081905091905056fea264697066735822122045f145828607a72fcc75b36776b03c49ed62aabc75a9de42e1100959ed818ab364736f6c63430008090033",
  "linkReferences": {},
  "deployedLinkReferences": {}
}